{
  "contractName": "PatientRecord",
  "abi": [
    {
      "constant": true,
      "inputs": [],
      "name": "patient",
      "outputs": [
        {
          "name": "",
          "type": "address"
        }
      ],
      "payable": false,
      "stateMutability": "view",
      "type": "function"
    },
    {
      "inputs": [],
      "payable": false,
      "stateMutability": "nonpayable",
      "type": "constructor"
    },
    {
      "constant": false,
      "inputs": [
        {
          "name": "x",
          "type": "string"
        }
      ],
      "name": "setPatientImage",
      "outputs": [],
      "payable": false,
      "stateMutability": "nonpayable",
      "type": "function"
    },
    {
      "constant": true,
      "inputs": [],
      "name": "getPatientImage",
      "outputs": [
        {
          "name": "",
          "type": "string"
        }
      ],
      "payable": false,
      "stateMutability": "view",
      "type": "function"
    }
  ],
  "bytecode": "0x608060405234801561001057600080fd5b5033600160006101000a81548173ffffffffffffffffffffffffffffffffffffffff021916908373ffffffffffffffffffffffffffffffffffffffff160217905550610417806100616000396000f300608060405260043610610057576000357c0100000000000000000000000000000000000000000000000000000000900463ffffffff1680635dc7cec71461005c578063bd96bd20146100c5578063d6f598a31461011c575b600080fd5b34801561006857600080fd5b506100c3600480360381019080803590602001908201803590602001908080601f01602080910402602001604051908101604052809392919081815260200183838082843782019150505050505091929192905050506101ac565b005b3480156100d157600080fd5b506100da610222565b604051808273ffffffffffffffffffffffffffffffffffffffff1673ffffffffffffffffffffffffffffffffffffffff16815260200191505060405180910390f35b34801561012857600080fd5b50610131610248565b6040518080602001828103825283818151815260200191508051906020019080838360005b83811015610171578082015181840152602081019050610156565b50505050905090810190601f16801561019e5780820380516001836020036101000a031916815260200191505b509250505060405180910390f35b600160009054906101000a900473ffffffffffffffffffffffffffffffffffffffff1673ffffffffffffffffffffffffffffffffffffffff163373ffffffffffffffffffffffffffffffffffffffff1614151561020857600080fd5b806000908051906020019061021e929190610346565b5050565b600160009054906101000a900473ffffffffffffffffffffffffffffffffffffffff1681565b6060600160009054906101000a900473ffffffffffffffffffffffffffffffffffffffff1673ffffffffffffffffffffffffffffffffffffffff163373ffffffffffffffffffffffffffffffffffffffff161415156102a657600080fd5b60008054600181600116156101000203166002900480601f01602080910402602001604051908101604052809291908181526020018280546001816001161561010002031660029004801561033c5780601f106103115761010080835404028352916020019161033c565b820191906000526020600020905b81548152906001019060200180831161031f57829003601f168201915b5050505050905090565b828054600181600116156101000203166002900490600052602060002090601f016020900481019282601f1061038757805160ff19168380011785556103b5565b828001600101855582156103b5579182015b828111156103b4578251825591602001919060010190610399565b5b5090506103c291906103c6565b5090565b6103e891905b808211156103e45760008160009055506001016103cc565b5090565b905600a165627a7a7230582021ea1d99951a0a186274a9652d6e2fa95f0bd5ef3a27b82ed9956e58754883450029",
  "source": "pragma solidity 0.4.24;\n\ncontract PatientRecord {\n  string patientImage;\n  address public patient;\n\n    modifier restricted() {\n      require(msg.sender == patient);\n      _;\n  }\n\n  function setPatientImage(string x) public restricted {\n    patientImage = x;\n  }\n\n  function getPatientImage() public restricted view returns (string) {\n    return patientImage;\n  }\n\n  function PatientRecord() public {\n       patient = msg.sender;//who is attempting to create the contract\n  }\n\n\n}\n\n\n// contract Campaign {\n    \n//     struct Request {\n//         string description;\n//         uint value;\n//         address recipient;\n//         bool complete;\n//         uint approvalCount; //value type - need to initialize\n//         mapping(address => bool) approvals; //reference type - no need to initialize as there is not value, only lookup\n//     }\n//     //This is not an instance of a variable - cannot modify it in the functions\n//     Request[] public requests;\n//     address public manager;\n//     uint public minimumContribution;\n//     mapping(address => bool) public approvers;\n//     uint public approversCount;\n\n    \n//     modifier restricted() {\n//         require(msg.sender == manager);\n//         _;\n//     }\n\n//     function Campaign(uint minimum, address creator) public {\n//         manager = creator;//who is attempting to create the contract\n//         minimumContribution = minimum;\n//     }\n    \n//     function contribute() public payable {\n//         require(msg.value > minimumContribution);\n//         approvers[msg.sender] = true;\n//         approversCount++;\n//     }\n    \n//     function createRequest(string description, uint value, address recipient) \n//         public restricted {\n//             Request memory newRequest = Request({\n//                description: description,\n//                value: value,\n//                recipient: recipient,\n//                complete: false,\n//                approvalCount: 0\n//             });\n//             requests.push(newRequest);\n//     }\n    \n//     function approveRequest(uint index) public {\n//         Request storage request = requests[index];\n        \n//         require(approvers[msg.sender]);\n//         require(!request.approvals[msg.sender]);\n        \n//         request.approvals[msg.sender] = true;\n//         request.approvalCount++;\n//     }\n    \n//     function finalizeRequest(uint index) public restricted {\n//         Request storage request = requests[index];\n//         require(request.approvalCount > (approversCount/2));\n//         require(!request.complete);\n    \n//         request.recipient.transfer(request.value);\n//         request.complete = true;\n        \n//     }\n\n//     function getSummary() public view returns (\n//         uint, uint, uint, uint, address\n//     ) {\n//         return (\n//             minimumContribution,\n//             this.balance,\n//             requests.length,\n//             approversCount,\n//             manager\n//         );\n//     }\n\n//     function getRequestsCount() public view returns (uint) {\n//         return requests.length;\n//     }\n    \n// }\n",
  "sourcePath": "/Users/samulai/Desktop/Dev/blockchain/blockchain-tutorial/react-uport/contracts/PatientRecord.sol",
  "compiler": {
    "name": "solc",
    "version": "0.4.24+commit.e67f0147.Emscripten.clang"
  },
  "schemaVersion": "2.0.1",
  "updatedAt": "2018-08-06T02:29:38.139Z"
}